{
  "_format": "hh-sol-artifact-1",
  "contractName": "Todo",
  "sourceName": "contracts/Todo.sol",
  "abi": [
    {
      "anonymous": false,
      "inputs": [
        {
          "indexed": false,
          "internalType": "uint256",
          "name": "id",
          "type": "uint256"
        },
        {
          "indexed": false,
          "internalType": "string",
          "name": "content",
          "type": "string"
        }
      ],
      "name": "TaskCreated",
      "type": "event"
    },
    {
      "anonymous": false,
      "inputs": [
        {
          "indexed": false,
          "internalType": "uint256",
          "name": "id",
          "type": "uint256"
        }
      ],
      "name": "TaskDeleted",
      "type": "event"
    },
    {
      "anonymous": false,
      "inputs": [
        {
          "indexed": false,
          "internalType": "uint256",
          "name": "id",
          "type": "uint256"
        },
        {
          "indexed": false,
          "internalType": "bool",
          "name": "completed",
          "type": "bool"
        }
      ],
      "name": "TaskUpdated",
      "type": "event"
    },
    {
      "inputs": [
        {
          "internalType": "string",
          "name": "_content",
          "type": "string"
        }
      ],
      "name": "createTask",
      "outputs": [],
      "stateMutability": "nonpayable",
      "type": "function"
    },
    {
      "inputs": [
        {
          "internalType": "uint256",
          "name": "_id",
          "type": "uint256"
        }
      ],
      "name": "deleteTask",
      "outputs": [],
      "stateMutability": "nonpayable",
      "type": "function"
    },
    {
      "inputs": [],
      "name": "getAllTasks",
      "outputs": [
        {
          "components": [
            {
              "internalType": "uint256",
              "name": "id",
              "type": "uint256"
            },
            {
              "internalType": "string",
              "name": "content",
              "type": "string"
            },
            {
              "internalType": "bool",
              "name": "completed",
              "type": "bool"
            }
          ],
          "internalType": "struct Todo.Task[]",
          "name": "",
          "type": "tuple[]"
        }
      ],
      "stateMutability": "view",
      "type": "function"
    },
    {
      "inputs": [
        {
          "internalType": "uint256",
          "name": "_id",
          "type": "uint256"
        },
        {
          "internalType": "bool",
          "name": "_completed",
          "type": "bool"
        }
      ],
      "name": "isCompletedTask",
      "outputs": [],
      "stateMutability": "nonpayable",
      "type": "function"
    },
    {
      "inputs": [
        {
          "internalType": "uint256",
          "name": "_id",
          "type": "uint256"
        },
        {
          "internalType": "string",
          "name": "_newContent",
          "type": "string"
        }
      ],
      "name": "updateTask",
      "outputs": [],
      "stateMutability": "nonpayable",
      "type": "function"
    }
  ],
  "bytecode": "0x608060405234801561001057600080fd5b50610946806100206000396000f3fe608060405234801561001057600080fd5b50600436106100575760003560e01c8063111002aa1461005c5780631154a99d14610071578063560f319214610084578063779900b41461009757806386533f6c146100b5575b600080fd5b61006f61006a366004610592565b6100c8565b005b61006f61007f3660046105cf565b610179565b61006f610092366004610604565b610201565b61009f610280565b6040516100ac9190610663565b60405180910390f35b61006f6100c33660046106e6565b610408565b6000805490806100d783610743565b90915550506040805160608101825260008054808352602080840186815284860184905291835260019081905293909120825181559051919290919082019061012090826107df565b50604091820151600291909101805460ff191691151591909117905560005490517fa5ed9e6226c584326505694539c95cb0e3238ae09bcda5a65c00bbfdab1c66629161016e91849061089f565b60405180910390a150565b6000548211156101a45760405162461bcd60e51b815260040161019b906108b8565b60405180910390fd5b600082815260016020908152604091829020600201805460ff19168415159081179091558251858152918201527fe9a6e5d5a580583ad1afe0c3e63b878d3f9d468e5139460d08cf04b4166b260e91015b60405180910390a15050565b6000548111156102235760405162461bcd60e51b815260040161019b906108b8565b60008181526001602081905260408220828155919061024490830182610499565b50600201805460ff191690556040518181527fd078b251d950cc55c44340be1db732337ef4939a76e1367ee271ad2cb19c46af9060200161016e565b60606000805467ffffffffffffffff81111561029e5761029e6104ef565b6040519080825280602002602001820160405280156102f557816020015b6102e2604051806060016040528060008152602001606081526020016000151581525090565b8152602001906001900390816102bc5790505b50905060015b600054811161040257600081815260016020818152604092839020835160608101909452805484529182018054918401916103359061075c565b80601f01602080910402602001604051908101604052809291908181526020018280546103619061075c565b80156103ae5780601f10610383576101008083540402835291602001916103ae565b820191906000526020600020905b81548152906001019060200180831161039157829003601f168201915b50505091835250506002919091015460ff161515602090910152826103d46001846108e1565b815181106103e4576103e46108fa565b602002602001018190525080806103fa90610743565b9150506102fb565b50919050565b60005482111561042a5760405162461bcd60e51b815260040161019b906108b8565b60008281526001602081905260409091200161044682826107df565b50600082815260016020526040908190206002015490517fe9a6e5d5a580583ad1afe0c3e63b878d3f9d468e5139460d08cf04b4166b260e916101f591859160ff16909182521515602082015260400190565b5080546104a59061075c565b6000825580601f106104b5575050565b601f0160209004906000526020600020908101906104d391906104d6565b50565b5b808211156104eb57600081556001016104d7565b5090565b634e487b7160e01b600052604160045260246000fd5b600082601f83011261051657600080fd5b813567ffffffffffffffff80821115610531576105316104ef565b604051601f8301601f19908116603f01168101908282118183101715610559576105596104ef565b8160405283815286602085880101111561057257600080fd5b836020870160208301376000602085830101528094505050505092915050565b6000602082840312156105a457600080fd5b813567ffffffffffffffff8111156105bb57600080fd5b6105c784828501610505565b949350505050565b600080604083850312156105e257600080fd5b82359150602083013580151581146105f957600080fd5b809150509250929050565b60006020828403121561061657600080fd5b5035919050565b6000815180845260005b8181101561064357602081850181015186830182015201610627565b506000602082860101526020601f19601f83011685010191505092915050565b60006020808301818452808551808352604092508286019150828160051b87010184880160005b838110156106d857603f19898403018552815160608151855288820151818a8701526106b88287018261061d565b92890151151595890195909552509487019492509086019060010161068a565b509098975050505050505050565b600080604083850312156106f957600080fd5b82359150602083013567ffffffffffffffff81111561071757600080fd5b61072385828601610505565b9150509250929050565b634e487b7160e01b600052601160045260246000fd5b6000600182016107555761075561072d565b5060010190565b600181811c9082168061077057607f821691505b60208210810361040257634e487b7160e01b600052602260045260246000fd5b601f8211156107da57600081815260208120601f850160051c810160208610156107b75750805b601f850160051c820191505b818110156107d6578281556001016107c3565b5050505b505050565b815167ffffffffffffffff8111156107f9576107f96104ef565b61080d81610807845461075c565b84610790565b602080601f831160018114610842576000841561082a5750858301515b600019600386901b1c1916600185901b1785556107d6565b600085815260208120601f198616915b8281101561087157888601518255948401946001909101908401610852565b508582101561088f5787850151600019600388901b60f8161c191681555b5050505050600190811b01905550565b8281526040602082015260006105c7604083018461061d565b6020808252600f908201526e125b9d985b1a59081d185cdac81251608a1b604082015260600190565b818103818111156108f4576108f461072d565b92915050565b634e487b7160e01b600052603260045260246000fdfea2646970667358221220a090131c0b71c886a1b621f841324fe2edf6227e7f1d23b569ec67a06612f29864736f6c63430008120033",
  "linkReferences": {},
  "deployedLinkReferences": {}
}